:10000E0000190001001B0001001800010019000179
:10001E00001900020019000100180001001900016A
:10002E00001B000100180001001900010019000258
:10003E0000190001001B0001001D0001001B000142
:10004E00001D0001001B0001001D0002001D00012B
:10005E00001B0001001D000200200002001D000216
:10006E00001600010018000100190001001B00011C
:10007E00001800010019000100190002001900010A
:10008E000018000100190001001B000100180001FA
:10009E0000190001001900020019000100180001EA
:1000AE00001D0001001B0001001D0001001B0001CE
:1000BE00001D0002001D0001001B0001001D0002BA
:1000CE0000200002001D000200200002001D00039F
:1000DE0000200001001D000300200001001D000192
:1000EE000020000100220001001D0001002000027E
:1000FE0000200002001D000300200001001D00036F
:10010E0000200001001D000100200001002200015E
:10011E00001D00010020000200200001002000014F
:10012E00001D0001001B0001001B0002001B00024D
:10013E0000190001001D0001001D0001001B00013F
:10014E00001B0002001B0002001900010019000133
:10015E00001600080000000400000002002000014C
:10016E0000200001001D0001001B0001001B000209
:10017E00001B000200190001001D0001001D0001FE
:10018E00001B0001001B0002001B000200190001F1
:10019E000019000100160008000000040000000411
:0201AE0000FF50
:1002A400204A0C0000F88CF8F3F95BF9B8FA15FA57
:1002B40067FAB9FB04FB4BFB90FBCFFC10FC44FC3E
:1002C40079FCACFCDCFD09FD34FD5CFD82FDA6FD82
:1002D400C8FDE8FE06FE22FE3DFE56FE6EFE85FECD
:0D02E4009AFEAEFEC1FED3FEE4FEF4FF0361
:10023C0012032EE50925E0FFE50833FE740E2FF5B9
:10024C008274003EF583E493FE740193FFF44E60D8
:10025C00438E0A8F0B0509E5097002050825E0FF9E
:10026C00E50833FE740E2FF58274003EF583E4939B
:10027C00FE740193FF7C007DAF12035A12034505F7
:10028C0009E50970020508C28C7F057E0012034542
:08029C00D28C809FC28C80FE11
:03000B000202F2FC
:1002F200C0E0C0D075D000C000C004C006C007AFC7
:100302000BEF25E0240CF8E6FC08E64C6011EF2523
:10031200E0240CF8E6FE08E6F58AEEF58CB2A5D0EC
:0C03220007D006D004D000D0D0D0E032CC
:10034500EF1FAC0670011E4C600A7D027CEFDCFEDF
:04035500DDFC80EC5F
:010359002281
:10032E005389F0438901758A18758CFCC28DD28C65
:07033E00D2A9D2AFC2B9221F
:030000000201B04A
:0C01B000787FE4F6D8FD7581550201F758
:10035A00EF8DF0A4A8F0CF8CF0A428CE8DF0A42EB7
:02036A00FE2271
:1001BC0002023CE493A3F8E493A34003F68001F21B
:1001CC0008DFF48029E493A3F85407240CC8C33344
:1001DC00C4540F4420C8834004F456800146F6DF13
:1001EC00E4800B01020408102040809002A4E47EFD
:1001FC00019360BCA3FF543F30E509541FFEE49308
:10020C00A360010ECF54C025E060A840B8E493A3CE
:10021C00FAE493A3F8E493A3C8C582C8CAC583CAF9
:10022C00F0A3C8C582C8CAC583CADFE9DEE780BEB1
:0102F100000C
:00000001FF
