:0C0A290020200020202D20202D20200067
:1006830012056AE518FB3395E0FA750C027D017FCC
:10069300011209A7E519FB3395E0FA750C027D04F5
:1006A3007F011209A7E51AFB3395E0FA750C027D69
:1006B300077F011209A7E51BFB3395E0FA750C02CE
:1006C3007D017F021209A7E51CFB3395E0FA750C47
:1006D300027D047F021209A7E51DFB3395E0FA753D
:0906E3000C027D077F020209A749
:10000E00E524B4020B0521E52175F0068485F02167
:10001E00E5246403600302010874182521F806D351
:10002E00E518648094E34003E4F518D3E519648081
:10003E00948C4003751901E51964016023E5196478
:10004E0003601DE51964056017E51964076011E585
:10005E00196408600BE519640A6005E519B40C0B08
:10006E00D3E51A6480949F406D8068E5196404603E
:10007E0011E5196406600BE51964096005E519B40C
:10008E000B0BD3E51A6480949E404B8046E51964B1
:10009E00027043E51875F00412047EAFF0EF700D98
:1000AE00E51875F06412047EAFF0EF7012AF18EF22
:1000BE003395E0FE7C017D90120534ED4C700BD330
:1000CE00E51A6480949D400E8009D3E51A648094ED
:1000DE009C4003751A01D3E51B648094974003E49A
:1000EE00F51BD3E51C648094BB4003E4F51CD3E5FB
:1000FE001D648094BB4003E4F51DE5246404600395
:10010E000201FB74182521F816C3E518648094804B
:10011E005003751863C3E5196480948150037519F3
:10012E000CE51964016023E5196403601DE519648B
:10013E00056017E51964076011E5196408600BE5A1
:10014E0019640A6005E519B40C0EC3E51A648094AF
:10015E00815076751A1F8071E51964046011E519D6
:10016E006406600BE51964096005E519B40B0EC34E
:10017E00E51A648094815051751A1E804CE51964FD
:10018E00027046E51875F00412047EAFF0EF700DA4
:10019E00E51875F06412047EAFF0EF7012AF18EF31
:1001AE003395E0FE7C017D90120534ED4C700EC34C
:1001BE00E51A648094815011751A1D800CC3E51ADE
:1001CE00648094815003751A1CC3E51B648094806F
:1001DE005003751B17C3E51C648094805003751C77
:1001EE003BC3E51D648094805003751D3BE5217073
:1001FE0014E523B4010F7BFF7A0A79297D017F0173
:10020E001209668011E518FB3395E0FA750C027D34
:10021E00017F011209A7E521B40114E523B4010FF2
:10022E007BFF7A0A79297D047F011209668011E528
:10023E0019FB3395E0FA750C027D047F011209A7B4
:10024E00E521B40214E523B4010F7BFF7A0A792964
:10025E007D077F011209668011E51AFB3395E0FADE
:10026E00750C027D077F011209A7E521B40314E581
:10027E0023B4010F7BFF7A0A79297D017F021209CF
:10028E00668011E51BFB3395E0FA750C027D017F4C
:10029E00021209A7E521B40414E523B4010F7BFF74
:1002AE007A0A79297D047F021209668011E51CFB0A
:1002BE003395E0FA750C027D047F021209A7E52141
:1002CE00B40514E523B4010F7BFF7A0A79297D0763
:1002DE007F021209668011E51DFB3395E0FA750C5D
:1002EE00027D077F021209A7E521FB7A00750C0239
:0702FE007D0A7F020209A73F
:1007A900120A061200031209C47BFF7A0A792C7D0A
:1007B900017F011209667BFF7A0A792C7D017F028C
:1007C9001209661203051206EC8F24E524B40116FA
:1007D900E5227007752201F521800BE522B4010697
:1007E900E4F522120305E5221460080470D8120604
:0807F9008380D312000E80CEB4
:03000B000208895F
:09088900C0E0C0D075D000C0072A
:10089200758A18758CFC0520E5207002051FC3942B
:1008A200F4E51F94014012751F00752000E52370C6
:0908B200047F0180027F008F2306
:0708BB00D007D0D0D0E032DD
:060A1A00C2A58F80D2A7E7
:080A20007F027EEFDEFEDFFC29
:010A280022AB
:0A0A3500C2A6120A1AC2A7020A2084
:10098900CFCDCFCECCCE1204DF7C007D0A1204DF9E
:04099900ED2430FF1A
:0A099D00D2A6120A1AC2A7020A200D
:1009DB00AE07BE0104ED148006BE0209ED243F44B0
:0609EB0080FF120A352214
:100A06007F38120A357F0C120A357F06120A357FA7
:040A160001020A359A
:0A0A3F00AC031209DBAF0402099DAD
:060966008B088A09890AD2
:10096C001209DBE4FDAB08AA09A90A8D8275830084
:0C097C001204A0FF600612099D0D80E926
:01098800224C
:0C0933007F0AEA24FFFDE434FFFC7E0094
:08093F008E0D8F0E8C0F8D1040
:100947007F017E00E4FBEBC39510E50F6480F8742C
:0E0957008098500AAC0DAD0E1204CD0B80E856
:01096500226F
:0409A7008A0A8B0B22
:1009AB001209DBAA0CEAD39400400D120933AC0AEE
:0809BB00AD0B1209891A80ED51
:0109C3002211
:10084F001209DBC3EA64809480400B7F2B12099D51
:10085F008A168B17800E7F2D12099DC3E49BF51707
:10086F00E49AF516AA15EAD39400400D120933AC99
:09087F0016AD171209891A80ED6B
:01088800224D
:0408C2008A278B28CE
:1008C6001209DBAA29EAD3940040297F10120935C0
:1008D600AC27AD28CFCDCFCECCCE1204DFEF540F50
:1008E600FEC3940AEE5004243080022437FF120916
:0408F6009D1A80D1F6
:0108FA0022DB
:0408FB008A2C8B2D8B
:1008FF001209DBAA2EEAD394004028EA24FFFDE474
:10090F0034FFFC7F027E0012093FAC2CAD2DCFCD02
:10091F00CFCECCCE1204DFEF54012430FF12099D4D
:03092F001A80D259
:0109320022A2
:1009F100EF1FAC0670011E4C600A7D027CEFDCFE2D
:040A0100DDFC80ECAC
:010A050022CE
:090A49000718180B050C3B3706D9
:05000300C2B5C2B622E7
:05074D002DFDEE3CFC57
:060752008C088D09AB07C5
:10075800D2B5E4FD74017E00A805088005C333CE38
:1007680033CED8F9FFEBF582EF558224FF92B4D24D
:10077800B6C2B60DBD08DDE4FD74017E00A805080B
:100788008005C333CE33CED8F9FFE5085EFEE50910
:100798005F4E24FF92B4D2B6C2B60DBD08DBC2B517
:0107A800222E
:02080100AD0741
:10080300E4F9430501D2B5FB74017E00A803088017
:1008130005C333CE33CED8F9FFEDF582EF558224ED
:10082300FF92B4C2B6D2B60BBB08DDE4FBD2B6C2AC
:10083300B630B40D7401A803088002C333D8FC4258
:0B084300010BBB08E8C2B5C2B4AF0156
:01084E002287
:10030500E4FDFC7F8E120752E51875F00A12047E93
:10031500FF3395E0FEEFC4F8540FC868FFEEC454F0
:10032500F048FEE51875F00A12047EADF0ED339540
:10033500E0FCEF7F8C12074DE51975F00A12047E7B
:10034500FF3395E0FEEFC4F8540FC868FFEEC454C0
:10035500F048FEE51975F00A12047EADF0ED33950F
:10036500E0FCEF7F8812074DE51A75F00A12047E4E
:10037500FF3395E0FEEFC4F8540FC868FFEEC45490
:10038500F048FEE51A75F00A12047EADF0ED3395DE
:10039500E0FCEF2DFDEE3CFC7F86120752E51B7558
:1003A500F00A12047EFF3395E0FEEFC4F8540FC83F
:1003B50068FFEEC454F048FEE51B75F00A12047E92
:1003C500ADF0ED3395E0FCEF2DFDEE3CFC7F8412A6
:1003D5000752E51C75F00A12047EFF3395E0FEEF27
:1003E500C4F8540FC868FFEEC454F048FEE51C7508
:1003F500F00A12047EADF0ED3395E0FCEF2DFDEE35
:100405003CFC7F82120752E51D75F00A12047EFF3F
:100415003395E0FEEFC4F8540FC868FFEEC454F0FE
:1004250048FEE51D75F00A12047EADF0ED3395E04A
:10043500FCEF2DFDEE3CFC7F80120752E51E75F0AA
:100445000A12047EFF3395E0FEEFC4F8540FC86826
:10045500FFEEC454F048FEE51E75F00A12047EADA9
:10046500F0ED3395E0FCEF2DFDEE3CFC7F8A1207A5
:0904750052E4FDFC7F8E020752E7
:10056A007F8C120801EFC4540F75F00AA4FEEF54F1
:10057A000F2EF5187F88120801EFC4540F75F00A80
:10058A00A4FEEF540F2EF5197F86120801EFC4540A
:10059A000F75F00AA4FEEF540F2EF51A7F84120885
:1005AA0001EFC4540F75F00AA4FEEF540F2EF51B89
:1005BA007F82120801EFC4540F75F00AA4FEEF54AB
:1005CA000F2EF51C7F80120801EFC4540F75F00A34
:1005DA00A4FEEF540F2EF51D7F8A120801EFC454B2
:0C05EA000F75F00AA4FEEF540F2EF51E52
:0105F60022E2
:1006EC00E4F50820B1137F14FE1209F130B1FD7F3F
:1006FC00147E001209F175080120B0147F147E00DD
:10070C001209F130B0FD7F147E001209F175080258
:10071C0020B2147F147E001209F130B2FD7F147EDA
:10072C00001209F175080320B3147F147E0012091E
:10073C00F130B3FD7F147E001209F1750804AF0887
:01074C00228A
:1009C4005389F0438901758A18758CFCC28DD28CC9
:0709D400D2A9D2AFC2B92283
:030000000205F7FF
:0C05F700787FE4F6D8FD75812E02063EE8
:10047E00C2D530F707B2D563F0FF05F030E70CB206
:10048E00D5F4048463F0FF05F080018430D502F4C6
:02049E00042236
:1004A000BB010CE58229F582E5833AF583E0225011
:1004B00006E92582F8E622BBFE06E92582F8E2225B
:0D04C000E58229F582E5833AF583E4932275
:1004CD00EF8DF0A4A8F0CF8CF0A428CE8DF0A42E43
:0204DD00FE22FD
:1004DF00BC000BBE0029EF8DF084FFADF022E4CC01
:1004EF00F875F008EF2FFFEE33FEEC33FCEE9DECCA
:1004FF00984005FCEE9DFE0FD5F0E9E4CEFD22ED10
:10050F00F8F5F0EE8420D21CFEADF075F008EF2F59
:10051F00FFED33FD4007985006D5F0F222C398FD4A
:05052F000FD5F0EA22E7
:10053400C2D5EC30E709B2D5E4C39DFDE49CFCEEE2
:1005440030E715B2D5E4C39FFFE49EFE1204DFC377
:10055400E49DFDE49CFC80031204DF30D507C3E472
:060564009FFFE49EFE2251
:100603000207A9E493A3F8E493A34003F68001F25D
:1006130008DFF48029E493A3F85407240CC8C333F8
:10062300C4540F4420C8834004F456800146F6DFC7
:10063300E4800B0102040810204080900A49E47E04
:10064300019360BCA3FF543F30E509541FFEE493BC
:10065300A360010ECF54C025E060A840B8E493A383
:10066300FAE493A3F8E493A3C8C582C8CAC583CAAE
:10067300F0A3C8C582C8CAC583CADFE9DEE780BE66
:010A520000A3
:00000001FF
