:1005410020202D20202D20200020203A20203A207C
:02055100200088
:1002990012052D1205807BFF7A0579417D017F01C9
:1002A9001204A47BFF7A05794A7D017F021204A416
:1002B900120003120180E518FB7A00750C027D011A
:1002C9007F011204E5E519FB7A00750C027D047FB4
:1002D900011204E5E51AFB7A00750C027D077F011E
:1002E9001204E5E51BFB7A00750C027D017F021201
:1002F90004E5E51CFB7A00750C027D047F021204FB
:10030900E5E51DFB7A00750C027D077F021204E505
:0203190080A1C1
:06055300C2A58F80D2A7B3
:080559007F027EEFDEFEDFFCF5
:010561002277
:0A056200C2A6120553C2A7020559F4
:1004C700CFCDCFCECCCE12012B7C007D0A12012BD3
:0404D700ED2430FFE1
:0A04DB00D2A6120553C2A70205596C
:10050200AE07BE0104ED148006BE0209ED243F448D
:0605120080FF12056222C9
:10052D007F381205627F0C1205627F061205627F0D
:04053D000102056250
:0A056C00AC03120502AF040204DB29
:0604A4008B088A09890A99
:1004AA00120502E4FDAB08AA09A90A8D8275830028
:0C04BA001200ECFF60061204DB0D80E96C
:0104C6002213
:0C0471007F0AEA24FFFDE434FFFC7E005B
:08047D008E0D8F0E8C0F8D1007
:100485007F017E00E4FBEBC39510E50F6480F874F3
:0E0495008098500AAC0DAD0E1201190B80E8D4
:0104A3002236
:0404E5008A0A8B0BE9
:1004E900120502AA0CEAD39400400D120471AC0A59
:0804F900AD0B1204C71A80EDDF
:0105010022D7
:1003C600120502C3EA64809480400B7F2B1204DB83
:1003D6008A168B17800E7F2D1204DBC3E49BF5175C
:1003E600E49AF516AA15EAD39400400D120471ACEE
:0903F60016AD171204C71A80EDC0
:0103FF0022DB
:040400008A218B22A0
:10040400120502AA23EAD3940040297F1012047330
:10041400AC21AD22CFCDCFCECCCE12012BEF540FD9
:10042400FEC3940AEE5004243080022437FF1204E1
:04043400DB1A80D17E
:0104380022A1
:040439008A268B275D
:10043D00120502AA28EAD394004028EA24FFFDE41D
:10044D0034FFFC7F027E0012047DAC26AD27CFCD9C
:10045D00CFCECCCE12012BEF54012430FF1204DB92
:03046D001A80D220
:010470002269
:090576000718180B050C3B3702B5
:05058000C2B5C2B62265
:06031B0025F0FDEC3EFCA4
:060321008C088D09AB07FA
:10032700D2B5E4FD74017E00A805088005C333CE6D
:1003370033CED8F9FFEBF582EF558224FF92B4D282
:10034700B6C2B60DBD08DDE4FD74017E00A8050840
:100357008005C333CE33CED8F9FFE5085EFEE50945
:100367005F4E24FF92B4D2B6C2B60DBD08DBC2B54C
:010377002263
:02037800AD07CF
:10037A00E4F9430501D2B5FB74017E00A8030880A5
:10038A0005C333CE33CED8F9FFEDF582EF5582247B
:10039A00FF92B4C2B6D2B60BBB08DDE4FBD2B6C23A
:1003AA00B630B40D7401A803088002C333D8FC42E6
:0B03BA00010BBB08E8C2B5C2B4AF01E4
:0103C5002215
:10000300E4FDFC7F8E120321E51875F00A8475F078
:1000130010A4FFAEF0E51875F00A84EF7F8C12038D
:100023001BE51975F00A8475F010A4FFAEF0E5190D
:1000330075F00A847C00EF7F8812031BE51A75F0C4
:100043000A8475F010A4FFAEF0E51A75F00A847CFB
:1000530000EF25F0FDEC3EFC7F86120321E51B75C6
:10006300F00A8475F010A4FFAEF0E51B75F00A8466
:100073007C00EF25F0FDEC3EFC7F84120321E51CA0
:1000830075F00A8475F010A4FFAEF0E51C75F00A54
:10009300847C00EF25F0FDEC3EFC7F82120321E51A
:1000A3001D75F00A8475F010A4FFAEF0E51D75F020
:1000B3000A847C00EF25F0FDEC3EFC7F80120321D7
:1000C300E51E75F00A8475F010A4FFAEF0E51E7509
:1000D300F00A847C00EF25F0FDEC3EFC7F8A1203DE
:0900E30021E4FDFC7F8E020321E3
:100180007F8C120378EFC4540F75F00AA4FEEF546D
:100190000F2EF5187F88120378EFC4540F75F00AFC
:1001A000A4FEEF540F2EF5197F86120378EFC45486
:1001B0000F75F00AA4FEEF540F2EF51A7F84120378
:1001C00078EFC4540F75F00AA4FEEF540F2EF51B00
:1001D0007F82120378EFC4540F75F00AA4FEEF5427
:1001E0000F2EF51C7F80120378EFC4540F75F00AB0
:1001F000A4FEEF540F2EF51D7F8A120378EFC4542E
:0C0200000F75F00AA4FEEF540F2EF51E3F
:01020C0022CF
:10051800EF1FAC0670011E4C600A7D027CEFDCFE0A
:04052800DDFC80EC8A
:01052C0022AC
:0300000002020DEC
:0C020D00787FE4F6D8FD758128020254C9
:1000EC00BB010CE58229F582E5833AF583E02250C9
:1000FC0006E92582F8E622BBFE06E92582F8E22213
:0D010C00E58229F582E5833AF583E493222C
:10011900EF8DF0A4A8F0CF8CF0A428CE8DF0A42EFA
:02012900FE22B4
:10012B00BC000BBE0029EF8DF084FFADF022E4CCB8
:10013B00F875F008EF2FFFEE33FEEC33FCEE9DEC81
:10014B00984005FCEE9DFE0FD5F0E9E4CEFD22EDC7
:10015B00F8F5F0EE8420D21CFEADF075F008EF2F11
:10016B00FFED33FD4007985006D5F0F222C398FD02
:05017B000FD5F0EA229F
:10021900020299E493A3F8E493A34003F68001F260
:1002290008DFF48029E493A3F85407240CC8C333E6
:10023900C4540F4420C8834004F456800146F6DFB5
:10024900E4800B0102040810204080900576E47ECA
:10025900019360BCA3FF543F30E509541FFEE493AA
:10026900A360010ECF54C025E060A840B8E493A371
:10027900FAE493A3F8E493A3C8C582C8CAC583CA9C
:10028900F0A3C8C582C8CAC583CADFE9DEE780BE54
:01057F00007B
:00000001FF
