:1009A600543A0054483A00544C3A004F563A4800DC
:0A09B6004F563A4C0020202020008C
:10046D001209D9120A6A7FE87E03120A32E4FF12DA
:10047D0008088F137F011208088F0AD3E5136480D3
:10048D0094FD5016C3E50A64809449400DD3E50AE6
:10049D006480F8E5136480985006751314750A0F7F
:1004AD00120A477BFF7A0979A67D017F011208B1F7
:1004BD007BFF7A0979A97D017F021208B17BFF7A52
:1004CD000979AD7D097F021208B1E513FB3395E083
:1004DD00FA7519037D047F021206F1E50AFB3395C7
:1004ED00E0FA7519037D0C7F021206F1120AB68F20
:1004FD0014120A6A1208388F128E118D108C0FE4A7
:10050D00FFFEFDFCAB12AA11A910A80F1201B450E9
:10051D001E7B2D7D037F01120AA3AF12AE11AD100C
:10052D00AC0F12022D8F0E8E0D8D0C8C0B80157B4A
:10053D002B7D037F01120AA385120E85110D8510E7
:10054D000C850F0BAF0EAE0DAD0CAC0B12027CABD0
:10055D0007AA067519037D047F011209507B2E7DB4
:10056D00077F01120AA3E4FFFE7DC87C42AB0EAAF1
:10057D000DA90CA80B12000E12027CE47B64FAF993
:10058D00F81203CD7519027D087F01120950E5148B
:10059D00700302063AB4010E0513D3E5136480947B
:1005AD00FD400375137DE514B402111513D3E50A4F
:1005BD006480F8E51364809850020513E514B403C4
:1005CD0011050AC3E5136480F8E50A6480984002BA
:1005DD00150AE514B4040E150AC3E50A648094499E
:1005ED005003750AC9E513FB3395E0FA7519037DC0
:1005FD00047F021206F1E50AFB3395E0FA75190343
:10060D007D0C7F021206F1E513FD3395E0FCE4FF4E
:10061D0012088D7F057E00120A32E50AFD3395E042
:10062D00FC7F0112088D7F057E00120A32AC13EC9F
:10063D00120248AB12AA11A910A80F1201B4601929
:10064D0040177BFF7A0979B17D0D7F011208B17FCB
:10065D00D07E071208D40204F9AC0AEC120248ABA2
:10066D0012AA11A910A80F1201B450107BFF7A091C
:10067D0079B67D0D7F011208B10204F97BFF7A096D
:0C068D0079BB7D0D7F011208B10204F959
:03000B0002069951
:10069900C0E0C0F0C083C082C0D075D000C000C027
:0D06A90001C002C003C004C005C006C007A8
:1006B600758A18758CFC0509E50970020508C3944E
:1006C60014E50894004009750800750900120764CE
:1006D600D007D006D005D004D003D002D001D00078
:0B06E600D0D0D082D083D0F0D0E03222
:10088D008F158C168D17120AAD7FA0120864120AEF
:10089D0077AF15120864120A77AF17120864120A9F
:0408AD0077020003CB
:020808008F154A
:10080A00120AAD7FA0120864120A77AF15120864A3
:10081A00120A77120AAD7FA1120864120A77120827
:0D082A00F68F167F01120A8F120003AF1621
:01083700229E
:100A3200EF1FAC0670011E4C600A7D027CEFDCFEEB
:040A4200DDFC80EC6B
:010A4600228D
:090AAD00D2A0D2A1C2A0C2A12274
:07000300C2A0D2A1D2A0228D
:02086400AD07DE
:10086600E4FB74807E00A803088006CEA2E713CEC0
:1008760013D8F8FFEDF582EF558224FF92A0D2A19E
:06088600C2A10BBB08DC5F
:01088C002249
:1008F600E4FFD2A0FED2A130A00D7480A806088025
:0D09060002C313D8FC4207C2A10EBE08E8D0
:0109130022C1
:0A0A8F00EF24FF92A0D2A1C2A12221
:0B0A7700D2A0D2A1A2A0E433FFC2A1D4
:010A82002251
:060A5B00C2A58F80D2A7A6
:080A61007F027EEFDEFEDFFCE8
:010A6900226A
:0A0A9900C2A6120A5BC2A7020A619E
:10091400CFCDCFCECCCE12033C7C007D0A12033C5B
:04092400ED2430FF8F
:0A092800D2A6120A5BC2A7020A6100
:1009F000AE07BE0104ED148006BE0209ED243F449B
:060A000080FF120A99229A
:100A47007F38120A997F0C120A997F06120A997F3A
:040A570001020A99F5
:0A0AA300AC031209F0AF04020928A9
:0608B1008B158A16891761
:1008B7001209F0E4FDAB15AA16A9178D82758300FE
:0C08C7001202FDFF60061209280D80E9F6
:0108D3002202
:0C07D5007F0AEA24FFFDE434FFFC7E00F4
:0807E1008E1C8F1D8C1E8D1F64
:1007E9007F017E00E4FBEBC3951FE51E6480F8746E
:0E07F9008098500AAC1CAD1D12032A0B80E83C
:0108070022CE
:040950008A178B185F
:100954001209F0AA19EAD39400400D1207D5AC1776
:08096400AD181209141A80ED10
:01096C002268
:1006F1001209F0C3EA64809480400B7F2B12092811
:100701008A1A8B1B800E7F2D120928C3E49BF51BCF
:10071100E49AF51AAA19EAD39400400D1207D5AC50
:090721001AAD1B1209141A80ED37
:01072A0022AC
:04072B008A228B2370
:10072F001209F0AA24EAD3940040297F101207D7A8
:10073F00AC22AD23CFCDCFCECCCE12033CEF540F96
:10074F00FEC3940AEE5004243080022437FF1209AE
:04075F00281A80D103
:010763002273
:04079D008A278B28F4
:1007A1001209F0AA29EAD394004028EA24FFFDE4C3
:1007B10034FFFC7F027E001207E1AC27AD28CFCDCC
:1007C100CFCECCCE12033CEF54012430FF120928C6
:0307D1001A80D2B9
:0107D4002202
:0D0A6A001209327FCC1209C07F440209C07E
:100838001209327FCC1209C07FBE1209C012096D9D
:100848008F1512096DEFFEE515FFFDAC06EC1202DF
:0B08580043E4FBFA798078411201179D
:010863002272
:10093200C2AFD2B7C2B77FE3DFFED2B77F1DDFFE01
:0D094200A2B7E433FE7FE3DFFED2AFAF06C5
:01094F002285
:100A0600C2AFC2B77E04DEFEEF24FF92B77E16DECB
:050A1600FED2B7D2AFD3
:010A1B0022B8
:10098A00C2AFC2B77F02DFFED2B77F02DFFEA2B7D5
:0B099A00E433FE7F16DFFED2AFAF0695
:0109A500222F
:0209C000AD0781
:1009C200E4FC7401A804088002C333D8FC5DFF1262
:0609D2000A060CBC08EC53
:0109D80022FC
:10096D00E4FDFC12098AEF600D7401A804088002F1
:0C097D00C333D8FC42050CBC08E9AF05F0
:01098900224B
:050AB600E4AF2CF52C5B
:010ABB002218
:100A1C00E4FF20B1010F20B0027F0220B2027F035D
:050A2C0020B3027F046D
:010A310022A2
:10076400852A2B120A1C8F2AE52BB40107E52A706F
:1007740003752C01E52BB40207E52A7003752C02DE
:10078400E52BB40307E52A7003752C03E52BB404A9
:0807940007E52A7003752C042F
:01079C00223A
:1009D9005389F0438901758A18758CFCC28DD28CB4
:0709E900D2A9D2AFC2B9226E
:050ABC00007FF7DFFEE2
:010AC1002212
:0408D400AD07AC06BA
:1008D800E4FBFAED25E0FFEC33FEC3EB9FEA9E5004
:0D08E8000CB2A5120ABC0BBB00010A80E691
:0108F50022E0
:10000E00EC4D6011E8497017ED33EC3304600DE4EC
:10001E00FCFFFEFD22E933E8330470F80202E81219
:10002E0002B358046009E4CC24815006285009021A
:10003E0002F22840030202EFC0E0EB4A7044B9809E
:10004E0006D0E0FB0202DEEF4E701CBD8008EBFF17
:10005E00EAFEE9FD80EBE98DF0A4FEE5F00200F783
:10006E00E9CDF9EAFEEBFFEF89F0A4FCE5F0CE89CD
:10007E00F0A42EFFE435F0CD89F0A42DFEE435F08A
:10008E008067EF4E7005BD80D780C3EF8BF0A4ACB8
:10009E00F0EE8BF0A42CFCE435F0F8EF8AF0A42CF3
:1000AE00E5F038FCE433CB8DF0A42CFCE5F03BF806
:1000BE00EE8AF0A42CFCE5F038F8E433CF89F0A4F6
:1000CE002CFCE5F038CF3400CE89F0A42FFFE5F0FC
:1000DE003EFEE433C98DF0A42EFEE5F039CD8AF054
:1000EE00A42FFFE5F03EFEE43DFD33D0E0FB5007CC
:1000FE000BBB000F0202F2EC2CFCEF33FFEE33FED3
:06010E00ED33FD0202CA00
:100114000202F2EC5D046005E8590470030202E88F
:100124001202B3580460F6EC4860F2EC7004FDFE71
:10013400FF22C860DB2481C85009C39860025006BE
:100144000202EF9850CAF582E9294B4A7005AB8246
:100154000202DE75F0007C1A7880C3EF9BEE9AED04
:1001640099400DC3EF9BFFEE9AFEED99FDE842F036
:10017400DC23ACF0D0E0FFD0E0FED0E0FDAB822089
:10018400E7101BEB60BAEC2CFCEF33FFEE33FEED13
:1001940033FD0202CAE803F830E705C0F075F00049
:1001A400EF2FFFEE33FEED33FD40B830E7C280AAF7
:1001B40074F8CC6480CCC86480C8F58204604FC3F2
:1001C400EB9FF5F0EA9E42F0E99D42F0E89C45F091
:1001D400603C501DE5825FFFE582D313CB5BCBF41B
:1001E4002B5582FB50280ABA002409B90020088044
:1001F4001DE5825BFBE582D313CF5FCFF4C3132FDE
:100204005582FF50090EBE00050DBD00010CC3EB65
:100214009FF5F0EA9E42F0E99D42F0E89C45F060CB
:0902240007CC4820E701B3EC22ED
:10022D00ED33EC33600A047003BD8004ECB2E7FCDF
:01023D00229E
:10023E0075F020800E75F010800575F0087D007E3B
:10024E00007F003392D530D50312045FEC3340109B
:10025E00EF33FFEE33FEED33FDEC33FCD5F0ED2244
:0E026E00E5F0247EA2D513CC92E7CDCEFF2280
:10027C00EDD2E7CD33EC3392D524814006E4FFFE7A
:10028C00FDFC22FCE4CFCECDCC24E0501174FF80D9
:10029C00EDC3CC13CCCD13CDCE13CECF13CF047076
:0702AC00F030D5DE02045F13
:1002B300E9D2E7C933E833F892D5EDD2E7CD33EC91
:0702C30033FC5002B2D5220A
:1002CA00EC30E7100FBF000C0EBE00080DBD000495
:1002DA000BEB6014A2D5EB13FCED92E7FD2274FF41
:1002EA00FCFDFEFF22E480F8A2D574FF13FC7D809A
:0302FA00E480EFAE
:03000000020A836E
:0C0A8300787FE4F6D8FD75812C02046D2C
:1002FD00BB010CE58229F582E5833AF583E02250B6
:10030D0006E92582F8E622BBFE06E92582F8E222FF
:0D031D00E58229F582E5833AF583E4932219
:10032A00EF8DF0A4A8F0CF8CF0A428CE8DF0A42EE7
:02033A00FE22A1
:10033C00BC000BBE0029EF8DF084FFADF022E4CCA5
:10034C00F875F008EF2FFFEE33FEEC33FCEE9DEC6E
:10035C00984005FCEE9DFE0FD5F0E9E4CEFD22EDB4
:10036C00F8F5F0EE8420D21CFEADF075F008EF2FFE
:10037C00FFED33FD4007985006D5F0F222C398FDEF
:05038C000FD5F0EA228C
:1003910075F008758200EF2FFFEE33FECD33CDCC23
:1003A10033CCC58233C5829BED9AEC99E5829840A6
:1003B1000CF582EE9BFEED9AFDEC99FC0FD5F0D683
:1003C100E4CEFBE4CDFAE4CCF9A88222B800C1B9AD
:1003D1000059BA002DEC8BF084CFCECDFCE5F0CBEB
:1003E100F97818EF2FFFEE33FEED33FDEC33FCEB24
:1003F10033FB10D703994004EB99FB0FD8E5E4F9DF
:10040100FA227818EF2FFFEE33FEED33FDEC33FCCB
:10041100C933C910D7059BE99A4007EC9BFCE99ABF
:10042100F90FD8E0E4C9FAE4CCFB2275F010EF2F04
:10043100FFEE33FEED33FDCC33CCC833C810D70704
:100441009BEC9AE899400AED9BFDEC9AFCE899F83F
:0E0451000FD5F0DAE4CDFBE4CCFAE4C8F922D2
:0E045F00C3E49FFFE49EFEE49DFDE49CFC22AE
:00000001FF
