:030000000202AB4E
:0C02AB00787FE4F6D8FD7581290202F28C
:10000E00E6ADA3E59CA8E692ADE694BEE6AD8CE621
:10001E009BB220E8B5B7E9A38EE4BA8600FF2B3079
:10002E0030102B3030102B202620202026202B3075
:10003E0030102B3030102B1026102B10301040208B
:10004E0040202B3030102B3030102B20262020203B
:10005E0026202B3026102B2030202B202B20FF206B
:10006E00FF202B3030102B3030102B20262020205C
:10007E0026202B3026102B20302039203920261018
:10008E002B1030102B103020302026102B1030105B
:10009E002B103030201026102B1030102B1030204B
:1000AE00302030202B20262030201C2020101C1029
:1000BE001C30301019201C101910192019201C107A
:1000CE0019101920262018101510181019101C20A0
:1000DE0020201C2020101C101C1020101C10201082
:1000EE001C2020102B102B10202020102620262024
:1000FE0030202B20262030201C2020101C101C30DD
:10010E00301019201C101910192019201C1019104C
:10011E001920262018101510181019101C20202038
:10012E001C2013101310132020201C20131013104A
:10013E00131020201C101C201C201C201C20FF2013
:10014E00FF201820152013200E10101010200E1056
:10015E00101010200E10101010201910181018204A
:10016E000E10101010200E10101010200E10101067
:10017E0010101330152018101C101C1018201C10F5
:10018E00151018101C201C101830132013201310DB
:10019E001210132013101520FF20FF2018201520F9
:1001AE0013200E10101010200E10101010200E1014
:1001BE0010101020152013200E10101010200E10ED
:1001CE00101010200E1010101010133015201810D3
:1001DE001C101C101330152018101C101C10183079
:1001EE0018201820FF20FF201C10131015201810A7
:1001FE001C101C101330152018101C101C10183059
:09020E0018201820182018200007
:03000300012800D1
:10033700E4F50FF51075890175A882758CD8758A53
:10034700EFD28C12051C7BFF7A00790E7D017F01AD
:10035700120492E4F5280510E5107002050F242B0E
:10036700F5827400350FF583E493F5110510E51058
:100377007002050F242BF5827400350FF583E49383
:10038700F529E528652960BEE511F46015E51160DA
:100397000AB2A5FF7E001204F080E7E4F50FF5101E
:0D03A70080A4C2A5AF297E001204F080D50D
:03000B0002055398
:09055300758CD8758AEF05283279
:1004F0007D02EF4E600FED60031D80FA7D02EF1F5D
:0505000070F01E80ED0B
:0105050022D3
:06053000C2A58F80D2A7D6
:080536007F027EEFDEFEDFFC18
:01053E00229A
:0A053F00C2A6120530C2A70205365D
:1004B500CFCDCFCECCCE1202567C007D0A1202568D
:0404C500ED2430FFF3
:0A04C900D2A6120530C2A7020536C4
:10050600AE07BE0104ED148006BE0209ED243F4489
:0605160080FF12053F22E8
:10051C007F3812053F7F0C12053F7F0612053F7F87
:04052C000102053F84
:0A054900AC03120506AF040204C95A
:060492008B128A1389148D
:10049800120506E4FDAB12AA13A9148D8275830018
:0C04A800120217FF60061204C90D80E963
:0104B4002225
:0C045F007F0AEA24FFFDE434FFFC7E006D
:08046B008E248F258C268D27BD
:100473007F017E00E4FBEBC39527E5266480F874D7
:0E0483008098500AAC24AD251202440B80E88C
:010491002248
:0404D3008A178B18E1
:1004D700120506AA19EAD39400400D12045FAC175F
:0804E700AD181204B51A80EDF6
:0104EF0022EA
:1003B400120506C3EA64809480400B7F2B1204C9A3
:1003C4008A0D8B0E800E7F2D1204C9C3E49BF50E9B
:1003D400E49AF50DAA0CEAD39400400D12045FAC24
:0903E4000DAD0E1204B51A80EDF6
:0103ED0022ED
:0403EE008A1C8B1DBD
:1003F200120506AA1EEAD3940040297F1012046156
:10040200AC1CAD1DCFCDCFCECCCE120256EF540FC9
:10041200FEC3940AEE5004243080022437FF1204F3
:04042200C91A80D1A2
:0104260022B3
:040427008A218B2279
:10042B00120506AA23EAD394004028EA24FFFDE430
:10043B0034FFFC7F027E0012046BAC21AD22CFCDCA
:10044B00CFCECCCE120256EF54012430FF1204C98A
:03045B001A80D232
:01045E00227B
:1002B700020337E493A3F8E493A34003F68001F223
:1002C70008DFF48029E493A3F85407240CC8C33348
:1002D700C4540F4420C8834004F456800146F6DF17
:1002E700E4800B0102040810204080900003E47EA4
:1002F700019360BCA3FF543F30E509541FFEE4930C
:10030700A360010ECF54C025E060A840B8E493A3D2
:10031700FAE493A3F8E493A3C8C582C8CAC583CAFD
:10032700F0A3C8C582C8CAC583CADFE9DEE780BEB5
:0100060000F9
:10021700BB010CE58229F582E5833AF583E022509C
:1002270006E92582F8E622BBFE06E92582F8E222E6
:0D023700E58229F582E5833AF583E4932200
:10024400EF8DF0A4A8F0CF8CF0A428CE8DF0A42ECE
:02025400FE2288
:10025600BC000BBE0029EF8DF084FFADF022E4CC8C
:10026600F875F008EF2FFFEE33FEEC33FCEE9DEC55
:10027600984005FCEE9DFE0FD5F0E9E4CEFD22ED9B
:10028600F8F5F0EE8420D21CFEADF075F008EF2FE5
:10029600FFED33FD4007985006D5F0F222C398FDD6
:0502A6000FD5F0EA2273
:00000001FF
