:100168001201F57512051201078F13E5136401706A
:10017800230515531503E5157002F512E515B401AD
:1001880003751228E515B40203751246E515B40384
:1001980003751264E515FD7C007F0112009A80C684
:03000B000201A847
:1001A800C0E0C0F0C0D0758AA4758CFF0514E514B2
:1001B80075F0648485F014E514C395125004D29048
:0B01C8008002C290D0D0D0F0D0E03216
:05000300007FF7DFFEA5
:0100080022D5
:0401D300AD07AC06C2
:1001D700E4FBFAED25E0FFEC33FEC3EB9FEA9E500C
:0D01E7000CB2A51200030BBB00010A80E65C
:0101F40022E8
:10020C00EF1FAC0670011E4C600A7D027CEFDCFE19
:04021C00DDFC80EC99
:0102200022BB
:10010700E4F51620B1137F14FE12020C30B1FD7F07
:10011700147E0012020C75160120B0147F147E00A5
:1001270012020C30B0FD7F147E0012020C7516020D
:1001370020B2147F147E0012020C30B2FD7F147EB1
:100147000012020C75160320B3147F147E001202EE
:100157000C30B3FD7F147E0012020C751604AF1627
:010167002275
:0C0221000A083F065B4F666D7D077F6F8B
:10009A00EF14B4080050549000AF75F003A4C58360
:1000AA0025F0C583730200C70200CB0200CF02000D
:1000BA00D30200D70200DF0200E70200EFD2A480D9
:1000CA000ED2A48012D2A48016D2A4801AC2A4D2BC
:1000DA00A3D2A28016C2A4D2A3C2A2800EC2A4C274
:1000EA00A3D2A28006C2A4C2A3C2A274082DF8E6B3
:0D00FA00F5807F017E0012020CE4F58022EB
:1001F5005389F0438901758AA4758CFFC28DD28C11
:07020500D2A9D2AFC2B92259
:0300000002000EED
:0C000E00787FE4F6D8FD758116020055DD
:10001A00020168E493A3F8E493A34003F68001F293
:10002A0008DFF48029E493A3F85407240CC8C333E7
:10003A00C4540F4420C8834004F456800146F6DFB6
:10004A00E4800B0102040810204080900221E47E23
:10005A00019360BCA3FF543F30E509541FFEE493AB
:10006A00A360010ECF54C025E060A840B8E493A372
:10007A00FAE493A3F8E493A3C8C582C8CAC583CA9D
:10008A00F0A3C8C582C8CAC583CADFE9DEE780BE55
:01022D0000D0
:00000001FF
