:0F0082001200037F4212009D7F4212009D80FEFC
:03002300020026B2
:10002600C0E0C0F0C083C082C0D075D000C000C0A0
:1000360001C002C003C004C005C006C00730980C4A
:10004600E599F4F5A0AF9912009DC298D007D006A5
:10005600D005D004D003D002D001D000D0D0D082B9
:07006600D083D0F0D0E0329E
:10006D00EF1FAC0670011E4C600A7D027CEFDCFEBA
:04007D00DDFC80EC3A
:01008100225C
:1000030075985053877F53890F438920758BFA75F1
:0B0013008DFAC2ABD28ED2ACD2AF226D
:08009D008F993099FDC29922F0
:030000000200916A
:0C009100787FE4F6D8FD7581070200823C
:00000001FF
