:100152003C42A98585A9423C3C42A18585A1423CFD
:080162003C42A58989A5423C3D
:1000CF002030080000000000000000090A7F0A0924
:1000DF00424C5A6D4F00000010207F800254FE5595
:1000EF00162257CC5474430100FD0000000000009D
:0300FF00000000FE
:10008F00E4F539F53A12017FE4F538E53825399072
:10009F00015293FD7C00AF381201300538E538C3AB
:1000AF00940840E7053AE53AD3940A40DBE4F53A81
:1000BF0074082539F539D3941040CDE4F53980C84B
:10016A00EF1FAC0670011E4C600A7D027CEFDCFEBC
:04017A00DDFC80EC3C
:01017E00225E
:02010300AD0746
:10010500E4FB74807E00A803088006CEA2E713CE28
:1001150013D8F8FFEDF582EF558224FF92B4D2B6DD
:0A012500C2B60BBB08DCD2B5C2B5B0
:01012F0022AD
:05017F00C2B6C2B5226A
:10013000AA07AF05120103AF027480A80708800266
:10014000C313D8FCF4F5807F017E0012016A75802C
:02015000FF228C
:03000000020003F8
:0C000300787FE4F6D8FD75813A02004ACF
:10000F0002008FE493A3F8E493A34003F68001F278
:10001F0008DFF48029E493A3F85407240CC8C333F2
:10002F00C4540F4420C8834004F456800146F6DFC1
:10003F00E4800B01020408102040809000CFE47E82
:10004F00019360BCA3FF543F30E509541FFEE493B6
:10005F00A360010ECF54C025E060A840B8E493A37D
:10006F00FAE493A3F8E493A3C8C582C8CAC583CAA8
:10007F00F0A3C8C582C8CAC583CADFE9DEE780BE60
:0101020000FC
:00000001FF
